S00B0000524F502E7372656328
S11300000C943E000C945B000C945B000C945B001D
S11300100C945B000C945B000C945B000C945B00F0
S11300200C945B000C945B000C945B000C945B00E0
S11300300C945B000C943C030C945B000C945B00EC
S11300400C945B000C945B000C945B000C945B00C0
S11300500C9409030C945B000C945B000C945B00FF
S11300600C945B000C945B000C945B000C945B00A0
S11300700C945B000C945B000C945B0011241FBE79
S1130080CFEFD0E1DEBFCDBF11E0A0E0B1E0EAEFF9
S1130090F0E102C005900D92A03EB107D9F722E02D
S11300A0A0EEB1E001C01D92A230B207E1F70E94B8
S11300B00D070C947B080C9400000E980F98169A68
S11300C0179A08950F9A179A0F9882E18A95F1F773
S11300D000C00E9A169A0E9882E18A95F1F700C034
S11300E00F9A179882E18A95F1F700C00E9A169834
S11300F082E18A95F1F700C008950F9A179882E17A
S11301008A95F1F700C00E9A169A0E9882E18A95A4
S1130110F1F700C00F9A179A0F9882E18A95F1F7C8
S113012000C0089598E088231CF00F9A179803C024
S11301300F9A179A0F98880F22E12A95F1F700C0B9
S11301400E9A169A0E9825E22A95F1F70E9A1698A9
S113015022E12A95F1F700C0915029F70F98179AD8
S113016082E18A95F1F700C00E9A169A0E9892E1F0
S11301709A95F1F700C080B122E12A95F1F700C009
S11301800E9A169892E19A95F1F700C08078089536
S11301901F93CF93DF93D82F162FC5E00E946200E0
S11301A08D2F0E949200811105C0812F0E94920020
S11301B0C1E004C00E947D00C15081F78C2FDF9103
S11301C0CF911F9108958CEC9AE00197F1F700C04C
S11301D0000080EC0E94920081E00E9492008CEC6E
S11301E09AE00197F1F700C00000089580EC0E94A6
S11301F092008CEC9AE00197F1F700C000008CE0CB
S11302000E9492008CEC9AE00197F1F700C0000084
S113021086E00E9492008CEC9AE00197F1F700C00E
S1130220000088E20E9492008CEC9AE00197F1F7BA
S113023000C00000089580EC0E9492008CEC9AE0CB
S11302400197F1F700C000008EE00E9492008CEC50
S11302509AE00197F1F700C00000089580EC0E9435
S113026092008CEC9AE00197F1F700C000008EE058
S11302700E9492008CEC9AE00197F1F700C0000014
S11302800895CF93C82F80EC0E9492008CEC9AE0E2
S11302900197F1F700C0000080E88C0F0E949200E3
S11302A08CEC9AE00197F1F700C00000CF9108951B
S11302B0CF93C82F80EC0E9492008CEC9AE00197B7
S11302C0F1F700C0000080EC8C0F0E9492008CECCF
S11302D09AE00197F1F700C00000CF910895EF92E2
S11302E0FF920F931F93CF93DF93CDB7DEB7619740
S11302F00FB6F894DEBF0FBECDBF8C0181E1E0E004
S1130300F1E0DE01119601900D928A95E1F760E02B
S113031088E70E94C800882359F080E00E944101C8
S11303208CEC9AE00197F1F700C000000E947D0078
S11303309801FE0131967F01DF0180E090E0F80131
S113034001900020E9F73197E01BF10B8E179F070E
S113035030F4F90141919F014D930196F0CF61E48E
S113036088E70E94C800882399F08E010F5E1F4F12
S1130370F70181917F010E949200E016F106C1F716
S11303808CEC9AE00197F1F700C000000E947D0018
S113039061960FB6F894DEBF0FBECDBFDF91CF914B
S11303A01F910F91FF90EF900895EF92FF920F939A
S11303B01F93CF93DF93CDB7DEB761970FB6F89451
S11303C0DEBF0FBECDBF8C0181E1E0E0F1E0DE01D4
S11303D0119601900D928A95E1F760E088E70E94FA
S11303E0C800882359F080E00E9458018CEC9AE000
S11303F00197F1F700C000000E947D009801FE0102
S113040031967F01DF0180E090E0F8010190002047
S1130410E9F73197E01BF10B8E179F0730F4F901D0
S113042041919F014D930196F0CF61E488E70E94CA
S1130430C800882399F08E010F5E1F4FF701819148
S11304407F010E949200E016F106C1F78CEC9AE05D
S11304500197F1F700C000000E947D0061960FB67D
S1130460F894DEBF0FBECDBFDF91CF911F910F91E6
S1130470FF90EF9008958FEF88B917B808959FEF14
S113048097B9282F209528B987B90000000086B1B4
S113049098B997B917B88F7008950F931F93CF9396
S11304A0DF93C62F142FD22F0E943F028D3059F0B4
S11304B028F4873061F08B3041F00BC08E3061F04E
S11304C08F3049F006C0C12F07C0CD2F05C0C02F03
S11304D003C0CFEF01C0C0E08C2FDF91CF911F91FB
S11304E00F9108950F93CF93DF9301E423E342E345
S11304F061E380E10E944D02C82F882321F08F3FE1
S113050021F0D1E004C0D0E002C0D1E0C0E002E4B8
S113051026E345E364E380E20E944D02882321F050
S1130520DF5F8F3F09F0C82F03E429E348E367E363
S113053080E40E944D02882321F0DF5F8F3F09F0A1
S1130540C82F04E423E240E36AE280E80E944D02FB
S1130550882321F0DF5F8F3F09F0C82FD13011F4D9
S11305608C2F01C080E0DF91CF910F9108950E94FC
S113057072029091FE0189130AC09091FF01943197
S113058058F48091FF018F5F8093FF010895809359
S1130590FE011092FF0108958823B1F12091FC011E
S11305A03091FD01232BD1F02091FC013091FD010C
S11305B0215031093093FD012093FC01232B41F597
S11305C090910002911103C080688093000286E933
S11305D090E09093FD018093FC01089590910102B5
S11305E0911104C0982F9068909301029091000299
S11305F0911103C080688093000288E592E0909393
S1130600FD018093FC0108951092FD011092FC01FC
S113061008951F920F920FB60F9211248F93EF93A8
S1130620FF938091C600823019F481E08093EA013F
S11306308091EA018823C1F0E091EB01F0E0809120
S1130640C600E451FE4F80838091EB018F5F80935D
S1130650EB018091EB018E3038F081E08093E90169
S11306601092EB011092EA01FF91EF918F910F909C
S11306700FBE0F901F9018951F920F920FB60F92F6
S113068011248F939F938091E0019091E1010A9648
S11306909093E1018093E0019F918F910F900FBEA1
S11306A00F901F901895F999FECF92BD81BDF89ACD
S11306B080B50895F999FECF92BD81BD60BDFA9AC7
S11306C0F99A089581E191E00E946F018BE191E034
S11306D00E94D501089580E191E00E946F0180E1BC
S11306E091E00E94D50108950F931F93CF93DF9358
S11306F08C01C0E0D0E0F80161918F012196CE0118
S11307000E945A03C730D105B1F7DF91CF911F91F1
S11307100F910895CF92DF92EF92FF920F931F9360
S1130720CF93DF93CDB7DEB727970FB6F894DEBF2C
S11307300FBECDBFFE01319687E0DF011D928A9581
S1130740E9F70E946B0388E291E00E946F0110E0D8
S11307500E94B702809101028823D4F7809101029C
S11307608F771092010290ED980F9A30C0F41630F2
S1130770B0F4212F30E0E1E0F0E0EC0FFD1FE20FD8
S1130780F31F8083E2E0F0E0EC0FFD1FE20FF31FA4
S113079010821F5FCE0101960E94D501D9CF8A3203
S11307A079F41123A9F21150E1E0F0E0EC0FFD1F00
S11307B0E10FF11D1082CE0101960E94D501C8CF30
S11307C0843431F6163021F683E391E00E946F0100
S11307D0BFEFEFEBF1E2B150E040F040E1F700C0D1
S11307E000008E010F5F1F4F0F2EF2EEEF2EF1E08F
S11307F0FF2EF02D6E0128E0C20ED11CD8018D9180
S11308008D01F70181937F01CE0101960E9474034B
S113081060E080E090E00E945A030C151D0571F71A
S113082027960FB6F894DEBF0FBECDBFDF91CF91F0
S11308301F910F91FF90EF90DF90CF90089562EE9B
S113084071E00E94720821E0892B09F020E0822FD8
S113085008951092C000E1ECF0E080818869808303
S1130860E2ECF0E080818662808387E490E09093FC
S1130870C5008093C4008FEF81B990E892B984B920
S113088085B90E943B020E945D00109AE1E8F0E005
S113089088E080838081856080838CE690E09093FB
S11308A089008093880082E080936F00789460E0F0
S11308B088E70E94C800882381F00E94E3000E9418
S11308C0F6000E941B010E942E018CEC9AE0019715
S11308D0F1F700C000000E947D0008950E946B03A0
S11308E015B88FE391E00E946F012FEF8FEB91E237
S11308F0215080409040E1F700C000008FEF85B99F
S11309000E94620308950E946B038FE491E00E94A9
S11309106F012FEF8FEB91E2215080409040E1F77F
S113092000C000000E9462030895CF93DF93C0E0EB
S1130930D0E0CE010A960E9453038F3F39F02196EE
S1130940CA30D105B1F78FEF9FEF02C08C2F9D2FD6
S1130950DF91CF910895CF92DF92EF92FF920F93A0
S11309601F93CF93DF93C82ED92EEB0160E0CE0105
S11309700A960E945A037E01EE0CFF1CEE0CFF1C2B
S1130980EE0CFF1CEE0CFF1C0C2D1D2DE7016496D4
S113099024E2E20EF11CF80161918F01CE010E9464
S11309A05A032196CE15DF05B1F70E946B038C2DF7
S11309B09D2D0E94D501FFEF2FED80E1F1502040E5
S11309C08040E1F700C00000DF91CF911F910F91AB
S11309D0FF90EF90DF90CF900895CF92DF92EF9247
S11309E0FF920F931F93CF93DF938A30910508F5FD
S11309F07B018C010A960E9453038F3FE9F0029514
S1130A001295107F1027007F1027E8016496670174
S1130A100C5D1F4FCE010E945303F60181936F01B9
S1130A202196C017D107B1F7F701178680E090E04F
S1130A3005C082E090E002C081E090E0DF91CF91B8
S1130A401F910F91FF90EF90DF90CF900895EF9258
S1130A50FF920F931F93CF93DF93CDB7DEB76097C9
S1130A600FB6F894DEBF0FBECDBF7C0100E010E0EE
S1130A70BE016F5F7F4FC8010E94ED04892B69F4AA
S1130A80B701CE0101960E947208892B31F481E0EE
S1130A9090E009C080E090E006C00F5F1F4F0A306D
S1130AA0110531F7F7CF60960FB6F894DEBF0FBE8D
S1130AB0CDBFDF91CF911F910F91FF90EF900895DB
S1130AC00F931F93CF93DF93CDB7DEB760970FB625
S1130AD0F894DEBF0FBECDBF1092E1011092E00189
S1130AE00E9495048C010F3F8FEF1807F1F18BE101
S1130AF091E00E946F018EE591E00E94D501209162
S1130B00E0013091E1018091E901882339F1CE01BE
S1130B100196AE014F5E5F4FFC0122E030E0281BDE
S1130B20390BD901AE0FBF1FA451BE4F8C918193D5
S1130B30E417F507B1F71092E901CE0101960E947E
S1130B402705892B41F4B801CE0101960E94AB041C
S1130B5082E090E00CC083E090E009C0203187E29D
S1130B6038078CF281E090E002C080E090E060966B
S1130B700FB6F894DEBF0FBECDBFDF91CF911F91AA
S1130B800F910895EF92FF920F931F93CF93DF93EA
S1130B90CDB7DEB7A0970FB6F894DEBF0FBECDBFBA
S1130BA01092E1011092E0018BE191E00E946F014B
S1130BB086E691E00E94D5012091E0013091E101A7
S1130BC08091E901882379F1CE014196AE014F5D10
S1130BD05F4FFC0122E030E0281B390BD901AE0F36
S1130BE0BF1FA451BE4F8C9181934E175F07B1F77D
S1130BF01092E90100E010E0BE016F5F7F4FC80171
S1130C000E94ED04892BF1F4BE016F5E7F4FCE018B
S1130C1001960E9472087C01892BA1F40DC0EE2478
S1130C20E394F12C15C0203187E238074CF2689424
S1130C30EE24E1F8F12C0CC06FEFC8010A960E9473
S1130C405A0306C00F5F1F4F0A301105A9F6E7CFFC
S1130C50C701A0960FB6F894DEBF0FBECDBFDF91DB
S1130C60CF911F910F91FF90EF900895EF92FF9213
S1130C701F93CF93DF93CDB7DEB760970FB6F89489
S1130C80DEBF0FBECDBFBC011091E901112309F1F4
S1130C90CE010196AE014F5E5F4FFC0122E030E0D1
S1130CA0281B390BD901AE0FBF1FA451BE4F9C9115
S1130CB09193E417F507B1F77B01CE0101960E94E9
S1130CC0270521E0892B09F420E0F7012083109205
S1130CD0E901812F60960FB6F894DEBF0FBECDBF39
S1130CE0DF91CF911F91FF90EF9008951F93CF93C1
S1130CF0DF93CDB7DEB727970FB6F894DEBF0FBEEC
S1130D00CDBF1092E1011092E001FE01319687E01F
S1130D10DF011D928A95E9F70E946B0388E291E056
S1130D200E946F0110E00E94B702809101028823A3
S1130D300CF04EC0809101028F771092010290ED69
S1130D40980F9A30C0F41630B0F4212F30E0E1E06F
S1130D50F0E0EC0FFD1FE20FF31F8083E2E0F0E010
S1130D60EC0FFD1FE20FF31F10821F5FCE010196EF
S1130D700E94D5012DC08A3279F4112349F1115012
S1130D80E1E0F0E0EC0FFD1FE10FF11D1082CE0158
S1130D9001960E94D5011CC08434C1F41630C1F4FC
S1130DA0CE0101960E941F048823E9F081E791E0B7
S1130DB00E946F01BFEF2FEB81E2B15020408040D1
S1130DC0E1F700C0000080E090E012C0833271F0CF
S1130DD08091E0019091E101803197420CF4A3CF1E
S1130DE082E090E005C081E090E002C083E090E002
S1130DF027960FB6F894DEBF0FBECDBFDF91CF911B
S1130E001F91089598E088E10FB6F894A89580930F
S1130E1060000FBE90936000FFCFCF93DF93CDB7F8
S1130E20DEB728970FB6F894DEBF0FBECDBF84B7E8
S1130E30877F84BF0FB6F894A8958091600088617D
S1130E4080936000109260000FBE0E94290480E02D
S1130E5090E00E9453038F3F19F40E948A0315C047
S1130E600F2EF2EEEF2EF1E0FF2EF02D00E010E059
S1130E700F5F1F4FC8010E945303D7018D937D015B
S1130E8006301105A9F71092E8010E946203198245
S1130E90FE01329687E0DF011D928A95E9F710E0A2
S1130EA0CE0101960E943606882341F08981882369
S1130EB019F00E946E0402C00E9483040E94B702CB
S1130EC080910102882364F7809101028F77109248
S1130ED0010290ED980F9A30C0F41630B0F4212F2F
S1130EE030E0E2E0F0E0EC0FFD1FE20FF31F80833F
S1130EF0E3E0F0E0EC0FFD1FE20FF31F10821F5F31
S1130F00CE0102960E94D501CBCF8A3279F4112307
S1130F1039F21150E2E0F0E0EC0FFD1FE10FF11D9A
S1130F201082CE0102960E94D501BACF843489F48E
S1130F30163009F0B5CFCE0102960E941F04882313
S1130F4021F00E946E0410E0ABCF0E94830410E0F5
S1130F50A7CF813409F04CC00E947606009741F572
S1130F600E9460057C010E946B03E114F10429F4E2
S1130F708BE791E00E946F012FC0B1E0EB16F10402
S1130F8029F485E891E00E946F0126C0E2E0EE16A4
S1130F90F10429F480E991E00E946F011DC0F3E09F
S1130FA0EF16F104C9F489E991E00E946F0114C0BD
S1130FB08130910519F40E9483040EC0823091059A
S1130FC029F485E891E00E946F0106C0039721F49B
S1130FD088EA91E00E946F012FEF8FEB91E221509C
S1130FE080409040E1F700C000000E94620358CFA7
S1130FF0823409F043C00E9476060097F9F40E94F7
S1131000C2057C010E946B03E114F10429F489EB0D
S113101091E00E946F0126C0A1E0EA16F10429F4D0
S113102087EC91E00E946F011DC0B2E0EB16F10461
S1131030C9F485E891E00E946F0114C081309105E4
S113104019F40E9483040EC08230910529F485E8C6
S113105091E00E946F0106C0039721F488EA91E0B1
S11310600E946F01EFEFFFEB21E2E150F0402040DE
S1131070E1F700C000000E94620312CF833409F03C
S11310800FCF0E947606009769F40E946B036FEFFE
S113109080E090E00E945A0382ED91E00E946F018B
S11310A00E9402078130910519F40E9483040EC046
S11310B08230910529F485E891E00E946F0106C011
S11310C0039721F488EA91E00E946F018FEF9FEB70
S11310D0A1E281509040A040E1F700C000000E94CE
S11310E06203DECEFB01DC018D91019080190110B9
S10D10F0D9F3990B0895F894FFCF8B
S11310FA20202020202020202020202020202020E2
S113110A00456E7465722050494E00456E636C6FDB
S113111A7365204348495000456E746572205049EE
S113112A4E3A00436F646520736176656421004119
S113113A636365737320616C6C6F77656421004126
S113114A63636573732064656E6965642100666F01
S113115A722041444400666F722052454D4F5645F1
S113116A00566572696669656421004E6F20537082
S113117A616365210054696D6564206F757421008B
S113118A537563636573732100416C726561647995
S113119A20416464656421004576656E7420636148
S11311AA6E63656C6C6564210043686970207265BE
S11311BA6D6F76656421004E6F7420666F756E6478
S11311CA210050494E2052656D6F766564210000F6
S9030000FC
