:100000000C943E000C945B000C945B000C945B0021
:100010000C945B000C945B000C945B000C945B00F4
:100020000C945B000C945B000C945B000C945B00E4
:100030000C945B000C943C030C945B000C945B00F0
:100040000C945B000C945B000C945B000C945B00C4
:100050000C9409030C945B000C945B000C945B0003
:100060000C945B000C945B000C945B000C945B00A4
:100070000C945B000C945B000C945B0011241FBE7D
:10008000CFEFD0E1DEBFCDBF11E0A0E0B1E0EEE305
:10009000F1E102C005900D92AE3DB107D9F722E023
:1000A000AEEDB1E001C01D92A030B207E1F70E94B1
:1000B0002F070C949D080C9400000E980F98169A28
:1000C000179A08950F9A179A0F9882E18A95F1F777
:1000D00000C00E9A169A0E9882E18A95F1F700C038
:1000E0000F9A179882E18A95F1F700C00E9A169838
:1000F00082E18A95F1F700C008950F9A179882E17E
:100100008A95F1F700C00E9A169A0E9882E18A95A8
:10011000F1F700C00F9A179A0F9882E18A95F1F7CC
:1001200000C0089598E088231CF00F9A179803C028
:100130000F9A179A0F98880F22E12A95F1F700C0BD
:100140000E9A169A0E9825E22A95F1F70E9A1698AD
:1001500022E12A95F1F700C0915029F70F98179ADC
:1001600082E18A95F1F700C00E9A169A0E9892E1F4
:100170009A95F1F700C080B122E12A95F1F700C00D
:100180000E9A169892E19A95F1F700C0807808953A
:100190001F93CF93DF93D82F162FC5E00E946200E4
:1001A0008D2F0E949200811105C0812F0E94920024
:1001B000C1E004C00E947D00C15081F78C2FDF9107
:1001C000CF911F9108958CEC9AE00197F1F700C050
:1001D000000080EC0E94920081E00E9492008CEC72
:1001E0009AE00197F1F700C00000089580EC0E94AA
:1001F00092008CEC9AE00197F1F700C000008CE0CF
:100200000E9492008CEC9AE00197F1F700C0000088
:1002100086E00E9492008CEC9AE00197F1F700C012
:10022000000088E20E9492008CEC9AE00197F1F7BE
:1002300000C00000089580EC0E9492008CEC9AE0CF
:100240000197F1F700C000008EE00E9492008CEC54
:100250009AE00197F1F700C00000089580EC0E9439
:1002600092008CEC9AE00197F1F700C000008EE05C
:100270000E9492008CEC9AE00197F1F700C0000018
:100280000895CF93C82F80EC0E9492008CEC9AE0E6
:100290000197F1F700C0000080E88C0F0E949200E7
:1002A0008CEC9AE00197F1F700C00000CF9108951F
:1002B000CF93C82F80EC0E9492008CEC9AE00197BB
:1002C000F1F700C0000080EC8C0F0E9492008CECD3
:1002D0009AE00197F1F700C00000CF910895EF92E6
:1002E000FF920F931F93CF93DF93CDB7DEB7619744
:1002F0000FB6F894DEBF0FBECDBF8C0181E1E0E008
:10030000F1E0DE01119601900D928A95E1F760E02F
:1003100088E70E94C800882359F080E00E944101CC
:100320008CEC9AE00197F1F700C000000E947D007C
:100330009801FE0131967F01DF0180E090E0F80135
:1003400001900020E9F73197E01BF10B8E179F0712
:1003500030F4F90141919F014D930196F0CF61E492
:1003600088E70E94C800882399F08E010F5E1F4F16
:10037000F70181917F010E949200E016F106C1F71A
:100380008CEC9AE00197F1F700C000000E947D001C
:1003900061960FB6F894DEBF0FBECDBFDF91CF914F
:1003A0001F910F91FF90EF900895EF92FF920F939E
:1003B0001F93CF93DF93CDB7DEB761970FB6F89455
:1003C000DEBF0FBECDBF8C0181E1E0E0F1E0DE01D8
:1003D000119601900D928A95E1F760E088E70E94FE
:1003E000C800882359F080E00E9458018CEC9AE004
:1003F0000197F1F700C000000E947D009801FE0106
:1004000031967F01DF0180E090E0F801019000204B
:10041000E9F73197E01BF10B8E179F0730F4F901D4
:1004200041919F014D930196F0CF61E488E70E94CE
:10043000C800882399F08E010F5E1F4FF70181914C
:100440007F010E949200E016F106C1F78CEC9AE061
:100450000197F1F700C000000E947D0061960FB681
:10046000F894DEBF0FBECDBFDF91CF911F910F91EA
:10047000FF90EF9008958FEF88B917B808959FEF18
:1004800097B9282F209528B987B90000000086B1B8
:1004900098B997B917B88F7008950F931F93CF939A
:1004A000DF93C62F142FD22F0E943F028D3059F0B8
:1004B00028F4873061F08B3041F00BC08E3061F052
:1004C0008F3049F006C0C12F07C0CD2F05C0C02F07
:1004D00003C0CFEF01C0C0E08C2FDF91CF911F91FF
:1004E0000F9108950F93CF93DF9301E423E342E349
:1004F00061E380E10E944D02C82F882321F08F3FE5
:1005000021F0D1E004C0D0E002C0D1E0C0E002E4BC
:1005100026E345E364E380E20E944D02882321F054
:10052000DF5F8F3F09F0C82F03E429E348E367E367
:1005300080E40E944D02882321F0DF5F8F3F09F0A5
:10054000C82F04E423E240E36AE280E80E944D02FF
:10055000882321F0DF5F8F3F09F0C82FD13011F4DD
:100560008C2F01C080E0DF91CF910F9108950E9400
:1005700072029091FC0189130AC09091FD0194319F
:1005800058F48091FD018F5F8093FD010895809361
:10059000FC011092FD0108958823B1F12091FA0128
:1005A0003091FB01232BD1F02091FA013091FB0116
:1005B000215031093093FB012093FA01232B41F59F
:1005C0009091FE01911103C080688093FE0186E93D
:1005D00090E09093FB018093FA0108959091FF01C0
:1005E000911104C0982F90689093FF019091FE01A3
:1005F000911103C080688093FE0188E592E090939A
:10060000FB018093FA0108951092FB011092FA0108
:1006100008951F920F920FB60F9211248F93EF93AC
:10062000FF938091C600823019F481E08093E80145
:100630008091E8018823C1F0E091E901F0E0809128
:10064000C600E651FE4F80838091E9018F5F809361
:10065000E9018091E9018E3038F081E08093E70173
:100660001092E9011092E801FF91EF918F910F90A4
:100670000FBE0F901F9018951F920F920FB60F92FA
:1006800011248F939F938091DE019091DF010A9650
:100690009093DF018093DE019F918F910F900FBEA9
:1006A0000F901F901895F999FECF92BD81BDF89AD1
:1006B00080B50895F999FECF92BD81BD60BDFA9ACB
:1006C000F99A089581E191E00E946F018BE191E038
:1006D0000E94D501089580E191E00E946F0180E1C0
:1006E00091E00E94D50108950F931F93CF93DF935C
:1006F0008C01C0E0D0E0F80161918F012196CE011C
:100700000E945A03C730D105B1F7DF91CF911F91F5
:100710000F9108951F93CF93DF93CDB7DEB727973F
:100720000FB6F894DEBF0FBECDBFFE01319687E055
:10073000DF011D928A95E9F70E946B0388E291E040
:100740000E946F0110E00E94B7028091FF01882390
:10075000D4F78091FF018F771092FF0190ED980FF1
:100760009A30C0F41630B0F4212F30E0E1E0F0E030
:10077000EC0FFD1FE20FF31F8083E2E0F0E0EC0FCF
:10078000FD1FE20FF31F10821F5FCE0101960E9432
:10079000D501D9CF8A3279F41123A9F21150E1E0C1
:1007A000F0E0EC0FFD1FE10FF11D1082CE0101966C
:1007B0000E94D501C8CF843431F6163021F6FE01EF
:1007C0003196A0EEB1E09E01285F3F4F81918D935D
:1007D000E217F307D9F7CE0101960E94740360E097
:1007E00080E090E00E945A0383E391E00E946F0151
:1007F000BFEF2FEB81E2B15020408040E1F700C015
:10080000000027960FB6F894DEBF0FBECDBFDF9174
:10081000CF911F91089560EE71E00E94940821E04D
:10082000892B09F020E0822F08951092C000E1EC9E
:10083000F0E0808188698083E2ECF0E0808186626C
:10084000808387E490E09093C5008093C400E1E842
:10085000F0E088E080838081856080838CE690E092
:10086000909389008093880082E080936F008FEFDF
:1008700081B990E892B984B985B90E943B020E947F
:100880005D00109A789460E088E70E94C800882391
:1008900081F00E94E3000E94F6000E941B010E946A
:1008A0002E018CEC9AE00197F1F700C000000E9445
:1008B0007D0008950E946B0315B88EE391E00E94BD
:1008C0006F012FEF8FEB91E2215080409040E1F7D4
:1008D00000C000008FEF85B90E94620308950E9456
:1008E0006B038EE491E00E946F012FEF8FEB91E29A
:1008F000215080409040E1F700C000000E94620358
:100900000895CF93DF93C0E0D0E0CE010A960E9415
:1009100053038F3F39F02196CA30D105B1F78FEFDD
:100920009FEF02C08C2F9D2FDF91CF910895CF9222
:10093000DF92EF92FF920F931F93CF93DF93C82E16
:10094000D92EEB0160E0CE010A960E945A037E0187
:10095000EE0CFF1CEE0CFF1CEE0CFF1CEE0CFF1C43
:100960000C2D1D2DE701649624E2E20EF11CF80126
:1009700061918F01CE010E945A032196CE15DF05A9
:10098000B1F70E946B038C2D9D2D0E94D501FFEFC6
:100990002FED80E1F15020408040E1F700C00000E1
:1009A000DF91CF911F910F91FF90EF90DF90CF904B
:1009B0000895CF92DF92EF92FF920F931F93CF9300
:1009C000DF938A30910508F57B018C010A960E941D
:1009D00053038F3FE9F002951295107F1027007F97
:1009E0001027E801649667010C5D1F4FCE010E943D
:1009F0005303F60181936F012196C017D107B1F718
:100A0000F701178680E090E005C082E090E002C028
:100A100081E090E0DF91CF911F910F91FF90EF90D7
:100A2000DF90CF900895EF92FF920F931F93CF9393
:100A3000DF93CDB7DEB760970FB6F894DEBF0FBE79
:100A4000CDBF7C0100E010E0BE016F5F7F4FC801A9
:100A50000E94D904892B69F4B701CE0101960E9446
:100A60009408892B31F481E090E009C080E090E0A7
:100A700006C00F5F1F4F0A30110531F7F7CF6096A0
:100A80000FB6F894DEBF0FBECDBFDF91CF911F919F
:100A90000F91FF90EF9008950F931F93CF93DF93E3
:100AA000CDB7DEB760970FB6F894DEBF0FBECDBFEF
:100AB0001092DF011092DE010E9481048C010196E8
:100AC00009F446C08BE191E00E946F018DE591E051
:100AD0000E94D5018091E701811143C08091DE0120
:100AE0009091DF01803A9F402CF135C0D901AE0FC3
:100AF000BF1FA651BE4F8C918193E417F507B1F744
:100B00001092E701CE0101960E941305892B41F452
:100B1000B801CE0101960E94970482E090E02CC0BB
:100B200083E090E029C08091DE019091DF01803A5E
:100B30009F40A4F48FEF9FEA21E081509040204035
:100B4000E1F700C000008091E701882361F309C04C
:100B500080E090E011C081E090E00EC081E090E084
:100B60000BC0CE010196AE014F5E5F4FFC0122E04B
:100B700030E0281B390BBACF60960FB6F894DEBF71
:100B80000FBECDBFDF91CF911F910F910895EF92CE
:100B9000FF920F931F93CF93DF93CDB7DEB7A0974C
:100BA0000FB6F894DEBF0FBECDBF1092DF011092DA
:100BB000DE018BE191E00E946F0185E691E00E94E9
:100BC000D5018091E70181114DC08091DE019091A6
:100BD000DF01803A9F4074F13BC0D901AE0FBF1FC7
:100BE000A651BE4F8C918193E417F507B1F710928F
:100BF000E70100E010E0BE016F5F7F4FC8010E9477
:100C0000D904892B09F03FC0BE016F5E7F4FCE0132
:100C100001960E9494087C01892BA9F52EC0EE2430
:100C2000E394F12C37C08091DE019091DF01803A8E
:100C30009F409CF48FEF9FEA21E08150904020403C
:100C4000E1F700C000008091E701882361F30AC04A
:100C50006894EE24E1F8F12C1DC06894EE24E1F8CC
:100C6000F12C18C0CE014196AE014F5D5F4FFC01E3
:100C700022E030E0281B390BB0CF6FEFC8010A9695
:100C80000E945A0307C00F5F1F4F0A30110509F079
:100C9000B2CFC5CFC701A0960FB6F894DEBF0FBE86
:100CA000CDBFDF91CF911F910F91FF90EF900895ED
:100CB000EF92FF921F93CF93DF93CDB7DEB760978C
:100CC0000FB6F894DEBF0FBECDBFBC011091E70197
:100CD000112309F1CE010196AE014F5E5F4FFC0179
:100CE00022E030E0281B390BD901AE0FBF1FA651FF
:100CF000BE4F9C919193E417F507B1F77B01CE01AC
:100D000001960E94130521E0892B09F420E0F701E8
:100D100020831092E701812F60960FB6F894DEBF12
:100D20000FBECDBFDF91CF911F91FF90EF9008953F
:100D30001F93CF93DF93CDB7DEB727970FB6F89405
:100D4000DEBF0FBECDBF1092DF011092DE01FE01AB
:100D5000319687E0DF011D928A95E9F70E946B03C7
:100D600088E291E00E946F0110E00E94B70280913A
:100D7000FF0188230CF04EC08091FF018F77109205
:100D8000FF0190ED980F9A30C0F41630B0F4212F87
:100D900030E0E1E0F0E0EC0FFD1FE20FF31F808395
:100DA000E2E0F0E0EC0FFD1FE20FF31F10821F5F87
:100DB000CE0101960E94D5012DC08A3279F411230B
:100DC00049F11150E1E0F0E0EC0FFD1FE10FF11DE2
:100DD0001082CE0101960E94D5011CC08434C1F45A
:100DE0001630C1F4CE0101960E940B048823E9F06D
:100DF00080E791E00E946F01BFEF2FEB81E2B150DD
:100E000020408040E1F700C0000080E090E012C088
:100E1000833271F08091DE019091DF01803A9F4032
:100E20000CF4A3CF82E090E005C081E090E002C026
:100E300083E090E027960FB6F894DEBF0FBECDBFDB
:100E4000DF91CF911F91089598E088E10FB6F89453
:100E5000A895809360000FBE90936000FFCFCF9362
:100E6000DF93CDB7DEB728970FB6F894DEBF0FBE7D
:100E7000CDBF84B7877F84BF0FB6F894A8958091C3
:100E80006000886180936000109260000FBE0E9435
:100E9000150480E090E00E9453038F3F19F40E94F4
:100EA0008A0315C00F2EF0EEEF2EF1E0FF2EF02D8D
:100EB00000E010E00F5F1F4FC8010E945303D701ED
:100EC0008D937D0106301105A9F71092E6010E946D
:100ED00062031982FE01329687E0DF011D928A9536
:100EE000E9F710E0CE0101960E945806882341F0F0
:100EF0008981882319F00E945A0402C00E946F045D
:100F00000E94B7028091FF01882364F78091FF015E
:100F10008F771092FF0190ED980F9A30C0F4163041
:100F2000B0F4212F30E0E2E0F0E0EC0FFD1FE20F23
:100F3000F31F8083E3E0F0E0EC0FFD1FE20FF31FEF
:100F400010821F5FCE0102960E94D501CBCF8A325C
:100F500079F4112339F21150E2E0F0E0EC0FFD1FBB
:100F6000E10FF11D1082CE0102960E94D501BACF89
:100F7000843489F4163009F0B5CFCE0102960E9470
:100F80000B04882321F00E945A0410E0ABCF0E948A
:100F90006F0410E0A7CF813409F04CC00E9498067E
:100FA000009741F50E944C057C010E946B03E114FF
:100FB000F10429F48AE791E00E946F012FC0B1E0AB
:100FC000EB16F10429F484E891E00E946F0126C039
:100FD000E2E0EE16F10429F48FE891E00E946F013F
:100FE0001DC0F3E0EF16F104C9F488E991E00E9416
:100FF0006F0114C08130910519F40E946F040EC076
:101000008230910529F484E891E00E946F0106C0C6
:10101000039721F487EA91E00E946F012FEF8FEB95
:1010200091E2215080409040E1F700C000000E9412
:10103000620358CF823409F043C00E94980600979B
:10104000F9F40E94C7057C010E946B03E114F104CE
:1010500029F488EB91E00E946F0126C0A1E0EA1616
:10106000F10429F486EC91E00E946F011DC0B2E00A
:10107000EB16F104C9F484E891E00E946F0114C0FA
:101080008130910519F40E946F040EC082309105E1
:1010900029F484E891E00E946F0106C0039721F4CF
:1010A00087EA91E00E946F01EFEFFFEB21E2E15050
:1010B000F0402040E1F700C000000E94620312CF20
:1010C000833409F00FCF0E949806009769F40E94BC
:1010D0006B036FEF80E090E00E945A0381ED91E096
:1010E0000E946F010E9424078130910519F40E942B
:1010F0006F040EC08230910529F484E891E00E94CB
:101100006F0106C0039721F487EA91E00E946F0106
:101110008FEF9FEBA1E281509040A040E1F700C02B
:1011200000000E946203DECEFB01DC018D91019084
:0E11300080190110D9F3990B0895F894FFCFA0
:10113E0020202020202020202020202020202020A1
:10114E0000456E7465722050494E00456E636C6F9B
:10115E007365204348495000456E746572205049AE
:10116E004E3A0050696E20736176656421004163CA
:10117E006365737320616C6C6F77656421004163E6
:10118E00636573732064656E6965642100666F72B2
:10119E002041444400666F722052454D4F56450023
:1011AE00566572696669656421004E6F20537061E1
:1011BE006365210054696D6564206F757421005359
:1011CE007563636573732100416C72656164792088
:1011DE00416464656421004576656E742063616EBA
:1011EE0063656C6C65642100436869702072656D7F
:1011FE006F76656421004E6F7420666F756E642184
:0E120E000050494E2052656D6F7665642100D8
:00000001FF
